{
  "contractName": "ItemManager",
  "abi": [
    {
      "anonymous": false,
      "inputs": [
        {
          "indexed": false,
          "internalType": "uint256",
          "name": "_itemIndex",
          "type": "uint256"
        },
        {
          "indexed": false,
          "internalType": "uint256",
          "name": "_step",
          "type": "uint256"
        },
        {
          "indexed": false,
          "internalType": "address",
          "name": "_itemAddress",
          "type": "address"
        }
      ],
      "name": "SupplyChainStepEvent",
      "type": "event"
    },
    {
      "stateMutability": "payable",
      "type": "fallback",
      "payable": true
    },
    {
      "inputs": [],
      "name": "isOwner",
      "outputs": [
        {
          "internalType": "bool",
          "name": "",
          "type": "bool"
        }
      ],
      "stateMutability": "view",
      "type": "function",
      "constant": true
    },
    {
      "inputs": [],
      "name": "itemIndex",
      "outputs": [
        {
          "internalType": "uint256",
          "name": "",
          "type": "uint256"
        }
      ],
      "stateMutability": "view",
      "type": "function",
      "constant": true
    },
    {
      "inputs": [
        {
          "internalType": "uint256",
          "name": "",
          "type": "uint256"
        }
      ],
      "name": "suppliedItems",
      "outputs": [
        {
          "internalType": "contract Item",
          "name": "_item",
          "type": "address"
        },
        {
          "internalType": "string",
          "name": "_itemName",
          "type": "string"
        },
        {
          "internalType": "uint256",
          "name": "_itemPrice",
          "type": "uint256"
        },
        {
          "internalType": "enum ItemManager.SupplyChainState",
          "name": "_step",
          "type": "uint8"
        }
      ],
      "stateMutability": "view",
      "type": "function",
      "constant": true
    },
    {
      "stateMutability": "payable",
      "type": "receive",
      "payable": true
    },
    {
      "inputs": [
        {
          "internalType": "string",
          "name": "_itemName",
          "type": "string"
        },
        {
          "internalType": "uint256",
          "name": "_itemPrice",
          "type": "uint256"
        }
      ],
      "name": "createItem",
      "outputs": [],
      "stateMutability": "nonpayable",
      "type": "function"
    },
    {
      "inputs": [
        {
          "internalType": "uint256",
          "name": "_index",
          "type": "uint256"
        }
      ],
      "name": "triggerPayment",
      "outputs": [],
      "stateMutability": "payable",
      "type": "function",
      "payable": true
    },
    {
      "inputs": [
        {
          "internalType": "uint256",
          "name": "_index",
          "type": "uint256"
        }
      ],
      "name": "triggerDelivered",
      "outputs": [],
      "stateMutability": "nonpayable",
      "type": "function"
    },
    {
      "inputs": [],
      "name": "getBalance",
      "outputs": [
        {
          "internalType": "uint256",
          "name": "",
          "type": "uint256"
        }
      ],
      "stateMutability": "view",
      "type": "function",
      "constant": true
    },
    {
      "inputs": [],
      "name": "getItemCount",
      "outputs": [
        {
          "internalType": "uint256",
          "name": "",
          "type": "uint256"
        }
      ],
      "stateMutability": "view",
      "type": "function",
      "constant": true
    },
    {
      "inputs": [
        {
          "internalType": "uint256",
          "name": "_index",
          "type": "uint256"
        }
      ],
      "name": "getItemAddress",
      "outputs": [
        {
          "internalType": "address",
          "name": "",
          "type": "address"
        }
      ],
      "stateMutability": "view",
      "type": "function",
      "constant": true
    },
    {
      "inputs": [
        {
          "internalType": "uint256",
          "name": "_index",
          "type": "uint256"
        }
      ],
      "name": "getItemStep",
      "outputs": [
        {
          "internalType": "uint256",
          "name": "",
          "type": "uint256"
        }
      ],
      "stateMutability": "view",
      "type": "function",
      "constant": true
    }
  ],
  "bytecode": "0x608060405234801561001057600080fd5b50336000806101000a81548173ffffffffffffffffffffffffffffffffffffffff021916908373ffffffffffffffffffffffffffffffffffffffff160217905550612183806100606000396000f3fe608060405260043610620000a35760003560e01c80638ee1605011620000615780638ee16050146200019f5780638f32d59b14620001e3578063a0232cda1462000213578063c2601eb9146200025a578063e07bb1a7146200028857620000ab565b806310f24b8b14620000ad57806312065fe014620000f15780637749cf231462000121578063800fb83f14620001515780638c551742146200017157620000ab565b36620000ab57005b005b348015620000ba57600080fd5b50620000d96004803603810190620000d3919062000e89565b620002b8565b604051620000e8919062001145565b60405180910390f35b348015620000fe57600080fd5b50620001096200031e565b60405162000118919062001145565b60405180910390f35b3480156200012e57600080fd5b506200013962000326565b60405162000148919062001145565b60405180910390f35b6200016f600480360381019062000169919062000e89565b62000330565b005b3480156200017e57600080fd5b506200019d600480360381019062000197919062000e2f565b62000691565b005b348015620001ac57600080fd5b50620001cb6004803603810190620001c5919062000e89565b620008e9565b604051620001da919062000ffd565b60405180910390f35b348015620001f057600080fd5b50620001fb62000929565b6040516200020a91906200101a565b60405180910390f35b3480156200022057600080fd5b506200023f600480360381019062000239919062000e89565b62000980565b6040516200025194939291906200108b565b60405180910390f35b3480156200026757600080fd5b5062000286600480360381019062000280919062000e89565b62000a6d565b005b3480156200029557600080fd5b50620002a062000ccb565b604051620002af919062001145565b60405180910390f35b60006002600083815260200190815260200160002060030160009054906101000a900460ff16600281111562000317577f4e487b7100000000000000000000000000000000000000000000000000000000600052602160045260246000fd5b9050919050565b600047905090565b6000600154905090565b6200033a62000929565b6200037c576040517f08c379a00000000000000000000000000000000000000000000000000000000081526004016200037390620010df565b60405180910390fd5b60006002600083815260200190815260200160002060000160009054906101000a900473ffffffffffffffffffffffffffffffffffffffff169050348173ffffffffffffffffffffffffffffffffffffffff16633c8da5886040518163ffffffff1660e01b815260040160206040518083038186803b158015620003ff57600080fd5b505afa15801562000414573d6000803e3d6000fd5b505050506040513d601f19601f820116820180604052508101906200043a919062000eb5565b146200047d576040517f08c379a0000000000000000000000000000000000000000000000000000000008152600401620004749062001123565b60405180910390fd5b60006002811115620004b8577f4e487b7100000000000000000000000000000000000000000000000000000000600052602160045260246000fd5b6002600084815260200190815260200160002060030160009054906101000a900460ff16600281111562000515577f4e487b7100000000000000000000000000000000000000000000000000000000600052602160045260246000fd5b1462000558576040517f08c379a00000000000000000000000000000000000000000000000000000000081526004016200054f9062001101565b60405180910390fd5b60016002600084815260200190815260200160002060030160006101000a81548160ff02191690836002811115620005b9577f4e487b7100000000000000000000000000000000000000000000000000000000600052602160045260246000fd5b02179055507f98c293eff48a0265330724df8e07d27cbce044e4f00146bbf04f236c92cb8024826002600085815260200190815260200160002060030160009054906101000a900460ff1660028111156200063d577f4e487b7100000000000000000000000000000000000000000000000000000000600052602160045260246000fd5b6002600086815260200190815260200160002060000160009054906101000a900473ffffffffffffffffffffffffffffffffffffffff16604051620006859392919062001162565b60405180910390a15050565b6200069b62000929565b620006dd576040517f08c379a0000000000000000000000000000000000000000000000000000000008152600401620006d490620010df565b60405180910390fd5b6000306001548484604051620006f39062000cd1565b62000702949392919062001037565b604051809103906000f0801580156200071f573d6000803e3d6000fd5b5090508060026000600154815260200190815260200160002060000160006101000a81548173ffffffffffffffffffffffffffffffffffffffff021916908373ffffffffffffffffffffffffffffffffffffffff160217905550826002600060015481526020019081526020016000206001019080519060200190620007a792919062000cdf565b508160026000600154815260200190815260200160002060020181905550600060026000600154815260200190815260200160002060030160006101000a81548160ff0219169083600281111562000828577f4e487b7100000000000000000000000000000000000000000000000000000000600052602160045260246000fd5b02179055507f98c293eff48a0265330724df8e07d27cbce044e4f00146bbf04f236c92cb802460015460026000600154815260200190815260200160002060030160009054906101000a900460ff166002811115620008b0577f4e487b7100000000000000000000000000000000000000000000000000000000600052602160045260246000fd5b83604051620008c29392919062001162565b60405180910390a160016000815480929190620008df906200138e565b9190505550505050565b60006002600083815260200190815260200160002060000160009054906101000a900473ffffffffffffffffffffffffffffffffffffffff169050919050565b60008060009054906101000a900473ffffffffffffffffffffffffffffffffffffffff1673ffffffffffffffffffffffffffffffffffffffff163373ffffffffffffffffffffffffffffffffffffffff1614905090565b60026020528060005260406000206000915090508060000160009054906101000a900473ffffffffffffffffffffffffffffffffffffffff1690806001018054620009cb9062001322565b80601f0160208091040260200160405190810160405280929190818152602001828054620009f99062001322565b801562000a4a5780601f1062000a1e5761010080835404028352916020019162000a4a565b820191906000526020600020905b81548152906001019060200180831162000a2c57829003601f168201915b5050505050908060020154908060030160009054906101000a900460ff16905084565b62000a7762000929565b62000ab9576040517f08c379a000000000000000000000000000000000000000000000000000000000815260040162000ab090620010df565b60405180910390fd5b6001600281111562000af4577f4e487b7100000000000000000000000000000000000000000000000000000000600052602160045260246000fd5b6002600083815260200190815260200160002060030160009054906101000a900460ff16600281111562000b51577f4e487b7100000000000000000000000000000000000000000000000000000000600052602160045260246000fd5b1462000b94576040517f08c379a000000000000000000000000000000000000000000000000000000000815260040162000b8b9062001101565b60405180910390fd5b600280600083815260200190815260200160002060030160006101000a81548160ff0219169083600281111562000bf4577f4e487b7100000000000000000000000000000000000000000000000000000000600052602160045260246000fd5b02179055507f98c293eff48a0265330724df8e07d27cbce044e4f00146bbf04f236c92cb8024816002600084815260200190815260200160002060030160009054906101000a900460ff16600281111562000c78577f4e487b7100000000000000000000000000000000000000000000000000000000600052602160045260246000fd5b6002600085815260200190815260200160002060000160009054906101000a900473ffffffffffffffffffffffffffffffffffffffff1660405162000cc09392919062001162565b60405180910390a150565b60015481565b610bf8806200155683390190565b82805462000ced9062001322565b90600052602060002090601f01602090048101928262000d11576000855562000d5d565b82601f1062000d2c57805160ff191683800117855562000d5d565b8280016001018555821562000d5d579182015b8281111562000d5c57825182559160200191906001019062000d3f565b5b50905062000d6c919062000d70565b5090565b5b8082111562000d8b57600081600090555060010162000d71565b5090565b600062000da662000da084620011c8565b6200119f565b90508281526020810184848401111562000dbf57600080fd5b62000dcc848285620012dd565b509392505050565b600082601f83011262000de657600080fd5b813562000df884826020860162000d8f565b91505092915050565b60008135905062000e12816200153b565b92915050565b60008151905062000e29816200153b565b92915050565b6000806040838503121562000e4357600080fd5b600083013567ffffffffffffffff81111562000e5e57600080fd5b62000e6c8582860162000dd4565b925050602062000e7f8582860162000e01565b9150509250929050565b60006020828403121562000e9c57600080fd5b600062000eac8482850162000e01565b91505092915050565b60006020828403121562000ec857600080fd5b600062000ed88482850162000e18565b91505092915050565b62000eec816200121a565b82525050565b62000efd816200122e565b82525050565b62000f0e8162001279565b82525050565b62000f1f81620012a1565b82525050565b62000f3081620012c9565b82525050565b600062000f4382620011fe565b62000f4f818562001209565b935062000f61818560208601620012ec565b62000f6c8162001498565b840191505092915050565b600062000f8660168362001209565b915062000f9382620014a9565b602082019050919050565b600062000fad601d8362001209565b915062000fba82620014d2565b602082019050919050565b600062000fd4601d8362001209565b915062000fe182620014fb565b602082019050919050565b62000ff7816200126f565b82525050565b600060208201905062001014600083018462000ee1565b92915050565b600060208201905062001031600083018462000ef2565b92915050565b60006080820190506200104e600083018762000f03565b6200105d602083018662000fec565b818103604083015262001071818562000f36565b905062001082606083018462000fec565b95945050505050565b6000608082019050620010a2600083018762000f14565b8181036020830152620010b6818662000f36565b9050620010c7604083018562000fec565b620010d6606083018462000f25565b95945050505050565b60006020820190508181036000830152620010fa8162000f77565b9050919050565b600060208201905081810360008301526200111c8162000f9e565b9050919050565b600060208201905081810360008301526200113e8162000fc5565b9050919050565b60006020820190506200115c600083018462000fec565b92915050565b600060608201905062001179600083018662000fec565b62001188602083018562000fec565b62001197604083018462000ee1565b949350505050565b6000620011ab620011be565b9050620011b9828262001358565b919050565b6000604051905090565b600067ffffffffffffffff821115620011e657620011e562001469565b5b620011f18262001498565b9050602081019050919050565b600081519050919050565b600082825260208201905092915050565b600062001227826200124f565b9050919050565b60008115159050919050565b60008190506200124a8262001524565b919050565b600073ffffffffffffffffffffffffffffffffffffffff82169050919050565b6000819050919050565b600062001286826200128d565b9050919050565b60006200129a826200124f565b9050919050565b6000620012ae82620012b5565b9050919050565b6000620012c2826200124f565b9050919050565b6000620012d6826200123a565b9050919050565b82818337600083830152505050565b60005b838110156200130c578082015181840152602081019050620012ef565b838111156200131c576000848401525b50505050565b600060028204905060018216806200133b57607f821691505b602082108114156200135257620013516200143a565b5b50919050565b620013638262001498565b810181811067ffffffffffffffff8211171562001385576200138462001469565b5b80604052505050565b60006200139b826200126f565b91507fffffffffffffffffffffffffffffffffffffffffffffffffffffffffffffffff821415620013d157620013d0620013dc565b5b600182019050919050565b7f4e487b7100000000000000000000000000000000000000000000000000000000600052601160045260246000fd5b7f4e487b7100000000000000000000000000000000000000000000000000000000600052602160045260246000fd5b7f4e487b7100000000000000000000000000000000000000000000000000000000600052602260045260246000fd5b7f4e487b7100000000000000000000000000000000000000000000000000000000600052604160045260246000fd5b6000601f19601f8301169050919050565b7f596f7520617265206e6f7420746865206f776e65722100000000000000000000600082015250565b7f4974656d206973206675727468657220696e2074686520636861696e21000000600082015250565b7f4f6e6c792066756c6c207061796d656e7420697320616c6c6f77656421000000600082015250565b600381106200153857620015376200140b565b5b50565b62001546816200126f565b81146200155257600080fd5b5056fe60806040523480156200001157600080fd5b5060405162000bf838038062000bf88339818101604052810190620000379190620001f9565b83600460006101000a81548173ffffffffffffffffffffffffffffffffffffffff021916908373ffffffffffffffffffffffffffffffffffffffff16021790555082600081905550816001908051906020019062000097929190620000a9565b50806002819055505050505062000474565b828054620000b79062000365565b90600052602060002090601f016020900481019282620000db576000855562000127565b82601f10620000f657805160ff191683800117855562000127565b8280016001018555821562000127579182015b828111156200012657825182559160200191906001019062000109565b5b5090506200013691906200013a565b5090565b5b80821115620001555760008160009055506001016200013b565b5090565b6000620001706200016a84620002a7565b6200027e565b9050828152602081018484840111156200018957600080fd5b620001968482856200032f565b509392505050565b600081519050620001af8162000440565b92915050565b600082601f830112620001c757600080fd5b8151620001d984826020860162000159565b91505092915050565b600081519050620001f3816200045a565b92915050565b600080600080608085870312156200021057600080fd5b600062000220878288016200019e565b94505060206200023387828801620001e2565b935050604085015167ffffffffffffffff8111156200025157600080fd5b6200025f87828801620001b5565b92505060606200027287828801620001e2565b91505092959194509250565b60006200028a6200029d565b90506200029882826200039b565b919050565b6000604051905090565b600067ffffffffffffffff821115620002c557620002c462000400565b5b620002d0826200042f565b9050602081019050919050565b6000620002ea8262000305565b9050919050565b6000620002fe82620002dd565b9050919050565b600073ffffffffffffffffffffffffffffffffffffffff82169050919050565b6000819050919050565b60005b838110156200034f57808201518184015260208101905062000332565b838111156200035f576000848401525b50505050565b600060028204905060018216806200037e57607f821691505b60208210811415620003955762000394620003d1565b5b50919050565b620003a6826200042f565b810181811067ffffffffffffffff82111715620003c857620003c762000400565b5b80604052505050565b7f4e487b7100000000000000000000000000000000000000000000000000000000600052602260045260246000fd5b7f4e487b7100000000000000000000000000000000000000000000000000000000600052604160045260246000fd5b6000601f19601f8301169050919050565b6200044b81620002f1565b81146200045757600080fd5b50565b620004658162000325565b81146200047157600080fd5b50565b61077480620004846000396000f3fe60806040526004361061004e5760003560e01c80633c8da5881461024357806340401fea1461026e57806389794d0014610299578063c09a55b5146102c4578063e07bb1a7146102ef5761023e565b3661023e576002543414610097576040517f08c379a000000000000000000000000000000000000000000000000000000000815260040161008e906105a7565b60405180910390fd5b6000600354146100dc576040517f08c379a00000000000000000000000000000000000000000000000000000000081526004016100d390610567565b60405180910390fd5b6000600460009054906101000a900473ffffffffffffffffffffffffffffffffffffffff1673ffffffffffffffffffffffffffffffffffffffff163460005460405160240161012b91906105c7565b6040516020818303038152906040527f800fb83f000000000000000000000000000000000000000000000000000000007bffffffffffffffffffffffffffffffffffffffffffffffffffffffff19166020820180517bffffffffffffffffffffffffffffffffffffffffffffffffffffffff83818316178352505050506040516101b5919061052e565b60006040518083038185875af1925050503d80600081146101f2576040519150601f19603f3d011682016040523d82523d6000602084013e6101f7565b606091505b505090508061023b576040517f08c379a000000000000000000000000000000000000000000000000000000000815260040161023290610587565b60405180910390fd5b50005b600080fd5b34801561024f57600080fd5b5061025861031a565b60405161026591906105c7565b60405180910390f35b34801561027a57600080fd5b50610283610320565b6040516102909190610545565b60405180910390f35b3480156102a557600080fd5b506102ae6103ae565b6040516102bb91906105c7565b60405180910390f35b3480156102d057600080fd5b506102d96103b4565b6040516102e69190610545565b60405180910390f35b3480156102fb57600080fd5b50610304610446565b60405161031191906105c7565b60405180910390f35b60025481565b6001805461032d90610651565b80601f016020809104026020016040519081016040528092919081815260200182805461035990610651565b80156103a65780601f1061037b576101008083540402835291602001916103a6565b820191906000526020600020905b81548152906001019060200180831161038957829003601f168201915b505050505081565b60035481565b6060600180546103c390610651565b80601f01602080910402602001604051908101604052809291908181526020018280546103ef90610651565b801561043c5780601f106104115761010080835404028352916020019161043c565b820191906000526020600020905b81548152906001019060200180831161041f57829003601f168201915b5050505050905090565b60005481565b6000610457826105e2565b61046181856105f8565b935061047181856020860161061e565b80840191505092915050565b6000610488826105ed565b6104928185610603565b93506104a281856020860161061e565b6104ab816106b2565b840191505092915050565b60006104c3601583610603565b91506104ce826106c3565b602082019050919050565b60006104e6601a83610603565b91506104f1826106ec565b602082019050919050565b6000610509601d83610603565b915061051482610715565b602082019050919050565b61052881610614565b82525050565b600061053a828461044c565b915081905092915050565b6000602082019050818103600083015261055f818461047d565b905092915050565b60006020820190508181036000830152610580816104b6565b9050919050565b600060208201905081810360008301526105a0816104d9565b9050919050565b600060208201905081810360008301526105c0816104fc565b9050919050565b60006020820190506105dc600083018461051f565b92915050565b600081519050919050565b600081519050919050565b600081905092915050565b600082825260208201905092915050565b6000819050919050565b60005b8381101561063c578082015181840152602081019050610621565b8381111561064b576000848401525b50505050565b6000600282049050600182168061066957607f821691505b6020821081141561067d5761067c610683565b5b50919050565b7f4e487b7100000000000000000000000000000000000000000000000000000000600052602260045260246000fd5b6000601f19601f8301169050919050565b7f4974656d206973207061696420616c7265616479210000000000000000000000600082015250565b7f5061796d656e74207761736e2774207375636365737366756c21000000000000600082015250565b7f4f6e6c792066756c6c207061796d656e7420697320616c6c6f7765642100000060008201525056fea2646970667358221220ad61fec98b70ef0dc43a287f8180ed53c6092cf001e8f5b96210f8fdbfac140364736f6c63430008010033a26469706673582212200a1a61a2a83c492b62d59f2e38aa392806446e4befcd167c9ddc94ed205eb8ed64736f6c63430008010033",
  "immutableReferences": {},
  "source": "// SPDX-License-Identifier: GPL-3.0\npragma solidity ^0.8.1;\n\nimport \"./Ownerable.sol\";\nimport \"./Item.sol\";\n\n\ncontract ItemManager is Ownerable {\n    \n    struct S_Item {\n        Item _item;\n        string _itemName;\n        uint _itemPrice;\n        SupplyChainState _step;\n    }\n    \n    event SupplyChainStepEvent(uint _itemIndex, uint _step, address _itemAddress);\n    \n    enum SupplyChainState {Created, Paid, Delivered}\n    \n    uint public itemIndex;\n    mapping(uint => S_Item) public suppliedItems;\n    \n    \n    function createItem(string memory _itemName, uint _itemPrice) public onlyOwner {\n        Item _item = new Item(this, itemIndex, _itemName, _itemPrice);\n        suppliedItems[itemIndex]._item = _item;\n        suppliedItems[itemIndex]._itemName = _itemName;\n        suppliedItems[itemIndex]._itemPrice = _itemPrice;\n        suppliedItems[itemIndex]._step = SupplyChainState.Created;\n        emit SupplyChainStepEvent(itemIndex, uint(suppliedItems[itemIndex]._step), address(_item));\n        itemIndex ++;\n    }\n    \n    function triggerPayment(uint _index) public payable onlyOwner {\n        Item _item = suppliedItems[_index]._item;\n        require(_item.priceInWei() == msg.value, \"Only full payment is allowed!\");\n        require(suppliedItems[_index]._step == SupplyChainState.Created, \"Item is further in the chain!\");\n        suppliedItems[_index]._step = SupplyChainState.Paid;\n        emit SupplyChainStepEvent(_index, uint(suppliedItems[_index]._step), address(suppliedItems[_index]._item));\n    }\n    \n    function triggerDelivered(uint _index) public onlyOwner {\n        require(suppliedItems[_index]._step == SupplyChainState.Paid, \"Item is further in the chain!\");\n        suppliedItems[_index]._step = SupplyChainState.Delivered;\n        emit SupplyChainStepEvent(_index, uint(suppliedItems[_index]._step), address(suppliedItems[_index]._item));\n    }\n    \n    function getBalance() external view returns(uint) {\n        return address(this).balance;\n    }\n    \n    function getItemCount() external view returns(uint) {\n        return itemIndex;\n    }\n    \n    function getItemAddress(uint _index) external view returns(address) {\n        return address(suppliedItems[_index]._item);\n    }\n    \n    function getItemStep(uint _index) external view returns(uint) {\n        return uint(suppliedItems[_index]._step);\n    }\n    \n    fallback() external payable {\n        \n    }\n    \n    receive() external payable {\n        \n    }\n}",
  "sourcePath": "/Users/sheilarcodigo/Documents/SHEILAR/BLOCKCHAIN/UDEMY/supply-chain/contracts/ItemManager.sol",
  "compiler": {
    "name": "solc",
    "version": "0.8.1+commit.df193b15.Emscripten.clang"
  },
  "schemaVersion": "3.3.4",
  "updatedAt": "2021-03-30T13:26:22.902Z",
  "networkType": "ethereum",
  "devdoc": {
    "kind": "dev",
    "methods": {},
    "version": 1
  },
  "userdoc": {
    "kind": "user",
    "methods": {},
    "version": 1
  }
}