{
  "contractName": "Item",
  "abi": [
    {
      "inputs": [
        {
          "internalType": "contract ItemManager",
          "name": "_manager",
          "type": "address"
        },
        {
          "internalType": "uint256",
          "name": "_itemIdex",
          "type": "uint256"
        },
        {
          "internalType": "string",
          "name": "_itemName",
          "type": "string"
        },
        {
          "internalType": "uint256",
          "name": "_priceInWei",
          "type": "uint256"
        }
      ],
      "stateMutability": "nonpayable",
      "type": "constructor"
    },
    {
      "inputs": [],
      "name": "itemIndex",
      "outputs": [
        {
          "internalType": "uint256",
          "name": "",
          "type": "uint256"
        }
      ],
      "stateMutability": "view",
      "type": "function"
    },
    {
      "inputs": [],
      "name": "itemName",
      "outputs": [
        {
          "internalType": "string",
          "name": "",
          "type": "string"
        }
      ],
      "stateMutability": "view",
      "type": "function"
    },
    {
      "inputs": [],
      "name": "priceInWei",
      "outputs": [
        {
          "internalType": "uint256",
          "name": "",
          "type": "uint256"
        }
      ],
      "stateMutability": "view",
      "type": "function"
    },
    {
      "inputs": [],
      "name": "pricePaid",
      "outputs": [
        {
          "internalType": "uint256",
          "name": "",
          "type": "uint256"
        }
      ],
      "stateMutability": "view",
      "type": "function"
    },
    {
      "stateMutability": "payable",
      "type": "receive"
    },
    {
      "inputs": [],
      "name": "getFullItemName",
      "outputs": [
        {
          "internalType": "string",
          "name": "",
          "type": "string"
        }
      ],
      "stateMutability": "view",
      "type": "function"
    }
  ],
  "bytecode": "0x60806040523480156200001157600080fd5b5060405162000bf838038062000bf88339818101604052810190620000379190620001f9565b83600460006101000a81548173ffffffffffffffffffffffffffffffffffffffff021916908373ffffffffffffffffffffffffffffffffffffffff16021790555082600081905550816001908051906020019062000097929190620000a9565b50806002819055505050505062000474565b828054620000b79062000365565b90600052602060002090601f016020900481019282620000db576000855562000127565b82601f10620000f657805160ff191683800117855562000127565b8280016001018555821562000127579182015b828111156200012657825182559160200191906001019062000109565b5b5090506200013691906200013a565b5090565b5b80821115620001555760008160009055506001016200013b565b5090565b6000620001706200016a84620002a7565b6200027e565b9050828152602081018484840111156200018957600080fd5b620001968482856200032f565b509392505050565b600081519050620001af8162000440565b92915050565b600082601f830112620001c757600080fd5b8151620001d984826020860162000159565b91505092915050565b600081519050620001f3816200045a565b92915050565b600080600080608085870312156200021057600080fd5b600062000220878288016200019e565b94505060206200023387828801620001e2565b935050604085015167ffffffffffffffff8111156200025157600080fd5b6200025f87828801620001b5565b92505060606200027287828801620001e2565b91505092959194509250565b60006200028a6200029d565b90506200029882826200039b565b919050565b6000604051905090565b600067ffffffffffffffff821115620002c557620002c462000400565b5b620002d0826200042f565b9050602081019050919050565b6000620002ea8262000305565b9050919050565b6000620002fe82620002dd565b9050919050565b600073ffffffffffffffffffffffffffffffffffffffff82169050919050565b6000819050919050565b60005b838110156200034f57808201518184015260208101905062000332565b838111156200035f576000848401525b50505050565b600060028204905060018216806200037e57607f821691505b60208210811415620003955762000394620003d1565b5b50919050565b620003a6826200042f565b810181811067ffffffffffffffff82111715620003c857620003c762000400565b5b80604052505050565b7f4e487b7100000000000000000000000000000000000000000000000000000000600052602260045260246000fd5b7f4e487b7100000000000000000000000000000000000000000000000000000000600052604160045260246000fd5b6000601f19601f8301169050919050565b6200044b81620002f1565b81146200045757600080fd5b50565b620004658162000325565b81146200047157600080fd5b50565b61077480620004846000396000f3fe60806040526004361061004e5760003560e01c80633c8da5881461024357806340401fea1461026e57806389794d0014610299578063c09a55b5146102c4578063e07bb1a7146102ef5761023e565b3661023e576002543414610097576040517f08c379a000000000000000000000000000000000000000000000000000000000815260040161008e906105a7565b60405180910390fd5b6000600354146100dc576040517f08c379a00000000000000000000000000000000000000000000000000000000081526004016100d390610567565b60405180910390fd5b6000600460009054906101000a900473ffffffffffffffffffffffffffffffffffffffff1673ffffffffffffffffffffffffffffffffffffffff163460005460405160240161012b91906105c7565b6040516020818303038152906040527f800fb83f000000000000000000000000000000000000000000000000000000007bffffffffffffffffffffffffffffffffffffffffffffffffffffffff19166020820180517bffffffffffffffffffffffffffffffffffffffffffffffffffffffff83818316178352505050506040516101b5919061052e565b60006040518083038185875af1925050503d80600081146101f2576040519150601f19603f3d011682016040523d82523d6000602084013e6101f7565b606091505b505090508061023b576040517f08c379a000000000000000000000000000000000000000000000000000000000815260040161023290610587565b60405180910390fd5b50005b600080fd5b34801561024f57600080fd5b5061025861031a565b60405161026591906105c7565b60405180910390f35b34801561027a57600080fd5b50610283610320565b6040516102909190610545565b60405180910390f35b3480156102a557600080fd5b506102ae6103ae565b6040516102bb91906105c7565b60405180910390f35b3480156102d057600080fd5b506102d96103b4565b6040516102e69190610545565b60405180910390f35b3480156102fb57600080fd5b50610304610446565b60405161031191906105c7565b60405180910390f35b60025481565b6001805461032d90610651565b80601f016020809104026020016040519081016040528092919081815260200182805461035990610651565b80156103a65780601f1061037b576101008083540402835291602001916103a6565b820191906000526020600020905b81548152906001019060200180831161038957829003601f168201915b505050505081565b60035481565b6060600180546103c390610651565b80601f01602080910402602001604051908101604052809291908181526020018280546103ef90610651565b801561043c5780601f106104115761010080835404028352916020019161043c565b820191906000526020600020905b81548152906001019060200180831161041f57829003601f168201915b5050505050905090565b60005481565b6000610457826105e2565b61046181856105f8565b935061047181856020860161061e565b80840191505092915050565b6000610488826105ed565b6104928185610603565b93506104a281856020860161061e565b6104ab816106b2565b840191505092915050565b60006104c3601583610603565b91506104ce826106c3565b602082019050919050565b60006104e6601a83610603565b91506104f1826106ec565b602082019050919050565b6000610509601d83610603565b915061051482610715565b602082019050919050565b61052881610614565b82525050565b600061053a828461044c565b915081905092915050565b6000602082019050818103600083015261055f818461047d565b905092915050565b60006020820190508181036000830152610580816104b6565b9050919050565b600060208201905081810360008301526105a0816104d9565b9050919050565b600060208201905081810360008301526105c0816104fc565b9050919050565b60006020820190506105dc600083018461051f565b92915050565b600081519050919050565b600081519050919050565b600081905092915050565b600082825260208201905092915050565b6000819050919050565b60005b8381101561063c578082015181840152602081019050610621565b8381111561064b576000848401525b50505050565b6000600282049050600182168061066957607f821691505b6020821081141561067d5761067c610683565b5b50919050565b7f4e487b7100000000000000000000000000000000000000000000000000000000600052602260045260246000fd5b6000601f19601f8301169050919050565b7f4974656d206973207061696420616c7265616479210000000000000000000000600082015250565b7f5061796d656e74207761736e2774207375636365737366756c21000000000000600082015250565b7f4f6e6c792066756c6c207061796d656e7420697320616c6c6f7765642100000060008201525056fea2646970667358221220ad61fec98b70ef0dc43a287f8180ed53c6092cf001e8f5b96210f8fdbfac140364736f6c63430008010033",
  "immutableReferences": {},
  "source": "// SPDX-License-Identifier: GPL-3.0\npragma solidity ^0.8.1;\n\nimport \"./ItemManager.sol\";\n\ncontract Item {\n    uint public itemIndex;\n    string public itemName;\n    uint public priceInWei;\n    uint public pricePaid;\n    ItemManager manager;\n    \n    constructor(ItemManager _manager, uint _itemIdex, string memory _itemName, uint _priceInWei) {\n        manager = _manager;\n        itemIndex = _itemIdex;\n        itemName = _itemName;\n        priceInWei = _priceInWei;\n    }\n\n    function getFullItemName() public view returns(string memory) {\n        return itemName;\n    } \n    \n    receive() external payable {\n        require(msg.value == priceInWei, \"Only full payment is allowed!\");\n        require(pricePaid == 0, \"Item is paid already!\");\n        (bool success, ) = address(manager).call{value: msg.value}(abi.encodeWithSignature(\"triggerPayment(uint256)\", itemIndex));\n        require(success, \"Payment wasn't successful!\");\n    }\n}\n",
  "sourcePath": "/Users/sheilarcodigo/Documents/SHEILAR/BLOCKCHAIN/UDEMY/supply-chain/contracts/Item.sol",
  "compiler": {
    "name": "solc",
    "version": "0.8.1+commit.df193b15.Emscripten.clang"
  },
  "schemaVersion": "3.3.4",
  "updatedAt": "2021-03-30T13:14:25.776Z",
  "devdoc": {
    "kind": "dev",
    "methods": {},
    "version": 1
  },
  "userdoc": {
    "kind": "user",
    "methods": {},
    "version": 1
  }
}